{
  "_format": "hh-sol-artifact-1",
  "contractName": "MultiSigWallet",
  "sourceName": "contracts/MultiSigWallet.sol",
  "abi": [
    {
      "inputs": [
        {
          "internalType": "address[]",
          "name": "_owners",
          "type": "address[]"
        },
        {
          "internalType": "uint256",
          "name": "_required",
          "type": "uint256"
        }
      ],
      "stateMutability": "nonpayable",
      "type": "constructor"
    },
    {
      "anonymous": false,
      "inputs": [
        {
          "indexed": true,
          "internalType": "address",
          "name": "sender",
          "type": "address"
        },
        {
          "indexed": true,
          "internalType": "uint256",
          "name": "txIndex",
          "type": "uint256"
        }
      ],
      "name": "ConfirmTransaction",
      "type": "event"
    },
    {
      "anonymous": false,
      "inputs": [
        {
          "indexed": true,
          "internalType": "address",
          "name": "sender",
          "type": "address"
        },
        {
          "indexed": false,
          "internalType": "uint256",
          "name": "amount",
          "type": "uint256"
        }
      ],
      "name": "Deposit",
      "type": "event"
    },
    {
      "anonymous": false,
      "inputs": [
        {
          "indexed": true,
          "internalType": "address",
          "name": "sender",
          "type": "address"
        },
        {
          "indexed": true,
          "internalType": "address",
          "name": "token",
          "type": "address"
        },
        {
          "indexed": true,
          "internalType": "address",
          "name": "to",
          "type": "address"
        },
        {
          "indexed": false,
          "internalType": "uint256",
          "name": "amount",
          "type": "uint256"
        }
      ],
      "name": "ExecuteTokenTransfer",
      "type": "event"
    },
    {
      "anonymous": false,
      "inputs": [
        {
          "indexed": true,
          "internalType": "address",
          "name": "sender",
          "type": "address"
        },
        {
          "indexed": true,
          "internalType": "uint256",
          "name": "txIndex",
          "type": "uint256"
        }
      ],
      "name": "ExecuteTransaction",
      "type": "event"
    },
    {
      "anonymous": false,
      "inputs": [
        {
          "indexed": true,
          "internalType": "address",
          "name": "sender",
          "type": "address"
        },
        {
          "indexed": true,
          "internalType": "uint256",
          "name": "txIndex",
          "type": "uint256"
        }
      ],
      "name": "RevokeConfirmation",
      "type": "event"
    },
    {
      "anonymous": false,
      "inputs": [
        {
          "indexed": true,
          "internalType": "address",
          "name": "sender",
          "type": "address"
        },
        {
          "indexed": true,
          "internalType": "uint256",
          "name": "txIndex",
          "type": "uint256"
        },
        {
          "indexed": true,
          "internalType": "address",
          "name": "to",
          "type": "address"
        },
        {
          "indexed": false,
          "internalType": "uint256",
          "name": "amount",
          "type": "uint256"
        }
      ],
      "name": "SubmitTransaction",
      "type": "event"
    },
    {
      "inputs": [
        {
          "internalType": "uint256",
          "name": "_txIndex",
          "type": "uint256"
        }
      ],
      "name": "confirmTransaction",
      "outputs": [],
      "stateMutability": "nonpayable",
      "type": "function"
    },
    {
      "inputs": [
        {
          "internalType": "uint256",
          "name": "",
          "type": "uint256"
        },
        {
          "internalType": "address",
          "name": "",
          "type": "address"
        }
      ],
      "name": "confirmations",
      "outputs": [
        {
          "internalType": "bool",
          "name": "",
          "type": "bool"
        }
      ],
      "stateMutability": "view",
      "type": "function"
    },
    {
      "inputs": [
        {
          "internalType": "address",
          "name": "tokenAddress",
          "type": "address"
        },
        {
          "internalType": "address",
          "name": "to",
          "type": "address"
        },
        {
          "internalType": "uint256",
          "name": "amount",
          "type": "uint256"
        }
      ],
      "name": "executeTokenTransfer",
      "outputs": [],
      "stateMutability": "nonpayable",
      "type": "function"
    },
    {
      "inputs": [
        {
          "internalType": "uint256",
          "name": "_txIndex",
          "type": "uint256"
        }
      ],
      "name": "executeTransaction",
      "outputs": [],
      "stateMutability": "nonpayable",
      "type": "function"
    },
    {
      "inputs": [
        {
          "internalType": "uint256",
          "name": "_txIndex",
          "type": "uint256"
        }
      ],
      "name": "getConfirmationCount",
      "outputs": [
        {
          "internalType": "uint256",
          "name": "count",
          "type": "uint256"
        }
      ],
      "stateMutability": "view",
      "type": "function"
    },
    {
      "inputs": [
        {
          "internalType": "address",
          "name": "",
          "type": "address"
        }
      ],
      "name": "isOwner",
      "outputs": [
        {
          "internalType": "bool",
          "name": "",
          "type": "bool"
        }
      ],
      "stateMutability": "view",
      "type": "function"
    },
    {
      "inputs": [
        {
          "internalType": "uint256",
          "name": "",
          "type": "uint256"
        }
      ],
      "name": "owners",
      "outputs": [
        {
          "internalType": "address",
          "name": "",
          "type": "address"
        }
      ],
      "stateMutability": "view",
      "type": "function"
    },
    {
      "inputs": [],
      "name": "required",
      "outputs": [
        {
          "internalType": "uint256",
          "name": "",
          "type": "uint256"
        }
      ],
      "stateMutability": "view",
      "type": "function"
    },
    {
      "inputs": [
        {
          "internalType": "uint256",
          "name": "_txIndex",
          "type": "uint256"
        }
      ],
      "name": "revokeConfirmation",
      "outputs": [],
      "stateMutability": "nonpayable",
      "type": "function"
    },
    {
      "inputs": [
        {
          "internalType": "address",
          "name": "_to",
          "type": "address"
        },
        {
          "internalType": "uint256",
          "name": "_amount",
          "type": "uint256"
        }
      ],
      "name": "submitTransaction",
      "outputs": [],
      "stateMutability": "nonpayable",
      "type": "function"
    },
    {
      "inputs": [],
      "name": "transactionCount",
      "outputs": [
        {
          "internalType": "uint256",
          "name": "",
          "type": "uint256"
        }
      ],
      "stateMutability": "view",
      "type": "function"
    },
    {
      "inputs": [
        {
          "internalType": "uint256",
          "name": "",
          "type": "uint256"
        }
      ],
      "name": "transactions",
      "outputs": [
        {
          "internalType": "address",
          "name": "to",
          "type": "address"
        },
        {
          "internalType": "uint256",
          "name": "amount",
          "type": "uint256"
        },
        {
          "internalType": "bool",
          "name": "executed",
          "type": "bool"
        }
      ],
      "stateMutability": "view",
      "type": "function"
    },
    {
      "stateMutability": "payable",
      "type": "receive"
    }
  ],
  "bytecode": "0x60806040523480156200001157600080fd5b50604051620020753803806200207583398181016040528101906200003791906200050e565b60008251116200007e576040517f08c379a00000000000000000000000000000000000000000000000000000000081526004016200007590620005d5565b60405180910390fd5b60008111801562000090575081518111155b620000d2576040517f08c379a0000000000000000000000000000000000000000000000000000000008152600401620000c9906200066d565b60405180910390fd5b60005b8251811015620002d5576000838281518110620000f757620000f66200068f565b5b60200260200101519050600073ffffffffffffffffffffffffffffffffffffffff168173ffffffffffffffffffffffffffffffffffffffff160362000173576040517f08c379a00000000000000000000000000000000000000000000000000000000081526004016200016a906200070e565b60405180910390fd5b600260008273ffffffffffffffffffffffffffffffffffffffff1673ffffffffffffffffffffffffffffffffffffffff16815260200190815260200160002060009054906101000a900460ff161562000203576040517f08c379a0000000000000000000000000000000000000000000000000000000008152600401620001fa9062000780565b60405180910390fd5b6001600260008373ffffffffffffffffffffffffffffffffffffffff1673ffffffffffffffffffffffffffffffffffffffff16815260200190815260200160002060006101000a81548160ff0219169083151502179055506000819080600181540180825580915050600190039060005260206000200160009091909190916101000a81548173ffffffffffffffffffffffffffffffffffffffff021916908373ffffffffffffffffffffffffffffffffffffffff160217905550508080620002cc90620007d1565b915050620000d5565b508060018190555050506200081e565b6000604051905090565b600080fd5b600080fd5b600080fd5b6000601f19601f8301169050919050565b7f4e487b7100000000000000000000000000000000000000000000000000000000600052604160045260246000fd5b6200034982620002fe565b810181811067ffffffffffffffff821117156200036b576200036a6200030f565b5b80604052505050565b600062000380620002e5565b90506200038e82826200033e565b919050565b600067ffffffffffffffff821115620003b157620003b06200030f565b5b602082029050602081019050919050565b600080fd5b600073ffffffffffffffffffffffffffffffffffffffff82169050919050565b6000620003f482620003c7565b9050919050565b6200040681620003e7565b81146200041257600080fd5b50565b6000815190506200042681620003fb565b92915050565b6000620004436200043d8462000393565b62000374565b90508083825260208201905060208402830185811115620004695762000468620003c2565b5b835b8181101562000496578062000481888262000415565b8452602084019350506020810190506200046b565b5050509392505050565b600082601f830112620004b857620004b7620002f9565b5b8151620004ca8482602086016200042c565b91505092915050565b6000819050919050565b620004e881620004d3565b8114620004f457600080fd5b50565b6000815190506200050881620004dd565b92915050565b60008060408385031215620005285762000527620002ef565b5b600083015167ffffffffffffffff811115620005495762000548620002f4565b5b6200055785828601620004a0565b92505060206200056a85828601620004f7565b9150509250929050565b600082825260208201905092915050565b7f4f776e6572732072657175697265640000000000000000000000000000000000600082015250565b6000620005bd600f8362000574565b9150620005ca8262000585565b602082019050919050565b60006020820190508181036000830152620005f081620005ae565b9050919050565b7f496e76616c6964207265717569726564206e756d626572206f6620636f6e666960008201527f726d6174696f6e73000000000000000000000000000000000000000000000000602082015250565b60006200065560288362000574565b91506200066282620005f7565b604082019050919050565b60006020820190508181036000830152620006888162000646565b9050919050565b7f4e487b7100000000000000000000000000000000000000000000000000000000600052603260045260246000fd5b7f496e76616c6964206f776e657200000000000000000000000000000000000000600082015250565b6000620006f6600d8362000574565b91506200070382620006be565b602082019050919050565b600060208201905081810360008301526200072981620006e7565b9050919050565b7f4f776e6572206e6f7420756e6971756500000000000000000000000000000000600082015250565b60006200076860108362000574565b9150620007758262000730565b602082019050919050565b600060208201905081810360008301526200079b8162000759565b9050919050565b7f4e487b7100000000000000000000000000000000000000000000000000000000600052601160045260246000fd5b6000620007de82620004d3565b91507fffffffffffffffffffffffffffffffffffffffffffffffffffffffffffffffff8203620008135762000812620007a2565b5b600182019050919050565b611847806200082e6000396000f3fe6080604052600436106100ab5760003560e01c80638b51d13f116100645780638b51d13f146102375780639ace38c214610274578063b77bf600146102b3578063c01a8c84146102de578063dc8452cd14610307578063ee22610b1461033257610100565b8063025e7c27146101055780631d43b6531461014257806320ea8d861461016b5780632f54bf6e146101945780633411c81c146101d157806380734baa1461020e57610100565b36610100573373ffffffffffffffffffffffffffffffffffffffff167fe1fffcc4923d04b559f4d29a8bfc6cda04eb5b0d3c460751c2402c5c5cc9109c346040516100f6919061105c565b60405180910390a2005b600080fd5b34801561011157600080fd5b5061012c600480360381019061012791906110a8565b61035b565b6040516101399190611116565b60405180910390f35b34801561014e57600080fd5b506101696004803603810190610164919061115d565b61039a565b005b34801561017757600080fd5b50610192600480360381019061018d91906110a8565b61056b565b005b3480156101a057600080fd5b506101bb60048036038101906101b6919061119d565b61078a565b6040516101c891906111e5565b60405180910390f35b3480156101dd57600080fd5b506101f860048036038101906101f39190611200565b6107aa565b60405161020591906111e5565b60405180910390f35b34801561021a57600080fd5b5061023560048036038101906102309190611240565b6107d9565b005b34801561024357600080fd5b5061025e600480360381019061025991906110a8565b610a0a565b60405161026b919061105c565b60405180910390f35b34801561028057600080fd5b5061029b600480360381019061029691906110a8565b610ae8565b6040516102aa93929190611293565b60405180910390f35b3480156102bf57600080fd5b506102c8610b3f565b6040516102d5919061105c565b60405180910390f35b3480156102ea57600080fd5b50610305600480360381019061030091906110a8565b610b45565b005b34801561031357600080fd5b5061031c610d67565b604051610329919061105c565b60405180910390f35b34801561033e57600080fd5b50610359600480360381019061035491906110a8565b610d6d565b005b6000818154811061036b57600080fd5b906000526020600020016000915054906101000a900473ffffffffffffffffffffffffffffffffffffffff1681565b600260003373ffffffffffffffffffffffffffffffffffffffff1673ffffffffffffffffffffffffffffffffffffffff16815260200190815260200160002060009054906101000a900460ff16610426576040517f08c379a000000000000000000000000000000000000000000000000000000000815260040161041d90611327565b60405180910390fd5b6000600554905060405180606001604052808473ffffffffffffffffffffffffffffffffffffffff168152602001838152602001600015158152506003600083815260200190815260200160002060008201518160000160006101000a81548173ffffffffffffffffffffffffffffffffffffffff021916908373ffffffffffffffffffffffffffffffffffffffff1602179055506020820151816001015560408201518160020160006101000a81548160ff021916908315150217905550905050600560008154809291906104fb90611376565b91905055508273ffffffffffffffffffffffffffffffffffffffff16813373ffffffffffffffffffffffffffffffffffffffff167fcd144288a078b7562351164feb1762115faca27f30827b4142f2bbe27166e3208560405161055e919061105c565b60405180910390a4505050565b600260003373ffffffffffffffffffffffffffffffffffffffff1673ffffffffffffffffffffffffffffffffffffffff16815260200190815260200160002060009054906101000a900460ff166105f7576040517f08c379a00000000000000000000000000000000000000000000000000000000081526004016105ee90611327565b60405180910390fd5b80600554811061063c576040517f08c379a00000000000000000000000000000000000000000000000000000000081526004016106339061140a565b60405180910390fd5b6004600083815260200190815260200160002060003373ffffffffffffffffffffffffffffffffffffffff1673ffffffffffffffffffffffffffffffffffffffff16815260200190815260200160002060009054906101000a900460ff166106d9576040517f08c379a00000000000000000000000000000000000000000000000000000000081526004016106d090611476565b60405180910390fd5b60006004600084815260200190815260200160002060003373ffffffffffffffffffffffffffffffffffffffff1673ffffffffffffffffffffffffffffffffffffffff16815260200190815260200160002060006101000a81548160ff021916908315150217905550813373ffffffffffffffffffffffffffffffffffffffff167ff0dca620e2e81f7841d07bcc105e1704fb01475b278a9d4c236e1c62945edd5560405160405180910390a35050565b60026020528060005260406000206000915054906101000a900460ff1681565b60046020528160005260406000206020528060005260406000206000915091509054906101000a900460ff1681565b600260003373ffffffffffffffffffffffffffffffffffffffff1673ffffffffffffffffffffffffffffffffffffffff16815260200190815260200160002060009054906101000a900460ff16610865576040517f08c379a000000000000000000000000000000000000000000000000000000000815260040161085c90611327565b60405180910390fd5b60015461087f600160055461087a9190611496565b610a0a565b10156108c0576040517f08c379a00000000000000000000000000000000000000000000000000000000081526004016108b790611516565b60405180910390fd5b600083905060008173ffffffffffffffffffffffffffffffffffffffff1663a9059cbb85856040518363ffffffff1660e01b8152600401610902929190611536565b6020604051808303816000875af1158015610921573d6000803e3d6000fd5b505050506040513d601f19601f82011682018060405250810190610945919061158b565b905080610987576040517f08c379a000000000000000000000000000000000000000000000000000000000815260040161097e90611604565b60405180910390fd5b8373ffffffffffffffffffffffffffffffffffffffff168573ffffffffffffffffffffffffffffffffffffffff163373ffffffffffffffffffffffffffffffffffffffff167f92f0301780268164c81a84a94461de66a8c9a005694dfce7b3dd163523c4038e866040516109fb919061105c565b60405180910390a45050505050565b600080600090505b600080549050811015610ae257600460008481526020019081526020016000206000808381548110610a4757610a46611624565b5b9060005260206000200160009054906101000a900473ffffffffffffffffffffffffffffffffffffffff1673ffffffffffffffffffffffffffffffffffffffff1673ffffffffffffffffffffffffffffffffffffffff16815260200190815260200160002060009054906101000a900460ff1615610acf57600182610acc9190611653565b91505b8080610ada90611376565b915050610a12565b50919050565b60036020528060005260406000206000915090508060000160009054906101000a900473ffffffffffffffffffffffffffffffffffffffff16908060010154908060020160009054906101000a900460ff16905083565b60055481565b600260003373ffffffffffffffffffffffffffffffffffffffff1673ffffffffffffffffffffffffffffffffffffffff16815260200190815260200160002060009054906101000a900460ff16610bd1576040517f08c379a0000000000000000000000000000000000000000000000000000000008152600401610bc890611327565b60405180910390fd5b806005548110610c16576040517f08c379a0000000000000000000000000000000000000000000000000000000008152600401610c0d9061140a565b60405180910390fd5b816004600082815260200190815260200160002060003373ffffffffffffffffffffffffffffffffffffffff1673ffffffffffffffffffffffffffffffffffffffff16815260200190815260200160002060009054906101000a900460ff1615610cb5576040517f08c379a0000000000000000000000000000000000000000000000000000000008152600401610cac906116d3565b60405180910390fd5b60016004600085815260200190815260200160002060003373ffffffffffffffffffffffffffffffffffffffff1673ffffffffffffffffffffffffffffffffffffffff16815260200190815260200160002060006101000a81548160ff021916908315150217905550823373ffffffffffffffffffffffffffffffffffffffff167f5cbe105e36805f7820e291f799d5794ff948af2a5f664e580382defb6339004160405160405180910390a3505050565b60015481565b600260003373ffffffffffffffffffffffffffffffffffffffff1673ffffffffffffffffffffffffffffffffffffffff16815260200190815260200160002060009054906101000a900460ff16610df9576040517f08c379a0000000000000000000000000000000000000000000000000000000008152600401610df090611327565b60405180910390fd5b806005548110610e3e576040517f08c379a0000000000000000000000000000000000000000000000000000000008152600401610e359061140a565b60405180910390fd5b816003600082815260200190815260200160002060020160009054906101000a900460ff1615610ea3576040517f08c379a0000000000000000000000000000000000000000000000000000000008152600401610e9a9061173f565b60405180910390fd5b600154610eaf84610a0a565b1015610ef0576040517f08c379a0000000000000000000000000000000000000000000000000000000008152600401610ee790611516565b60405180910390fd5b600060036000858152602001908152602001600020905060018160020160006101000a81548160ff02191690831515021790555060008160000160009054906101000a900473ffffffffffffffffffffffffffffffffffffffff1673ffffffffffffffffffffffffffffffffffffffff168260010154604051610f7290611790565b60006040518083038185875af1925050503d8060008114610faf576040519150601f19603f3d011682016040523d82523d6000602084013e610fb4565b606091505b5050905080610ff8576040517f08c379a0000000000000000000000000000000000000000000000000000000008152600401610fef906117f1565b60405180910390fd5b843373ffffffffffffffffffffffffffffffffffffffff167f5445f318f4f5fcfb66592e68e0cc5822aa15664039bd5f0ffde24c5a8142b1ac60405160405180910390a35050505050565b6000819050919050565b61105681611043565b82525050565b6000602082019050611071600083018461104d565b92915050565b600080fd5b61108581611043565b811461109057600080fd5b50565b6000813590506110a28161107c565b92915050565b6000602082840312156110be576110bd611077565b5b60006110cc84828501611093565b91505092915050565b600073ffffffffffffffffffffffffffffffffffffffff82169050919050565b6000611100826110d5565b9050919050565b611110816110f5565b82525050565b600060208201905061112b6000830184611107565b92915050565b61113a816110f5565b811461114557600080fd5b50565b60008135905061115781611131565b92915050565b6000806040838503121561117457611173611077565b5b600061118285828601611148565b925050602061119385828601611093565b9150509250929050565b6000602082840312156111b3576111b2611077565b5b60006111c184828501611148565b91505092915050565b60008115159050919050565b6111df816111ca565b82525050565b60006020820190506111fa60008301846111d6565b92915050565b6000806040838503121561121757611216611077565b5b600061122585828601611093565b925050602061123685828601611148565b9150509250929050565b60008060006060848603121561125957611258611077565b5b600061126786828701611148565b935050602061127886828701611148565b925050604061128986828701611093565b9150509250925092565b60006060820190506112a86000830186611107565b6112b5602083018561104d565b6112c260408301846111d6565b949350505050565b600082825260208201905092915050565b7f4e6f7420616e206f776e65720000000000000000000000000000000000000000600082015250565b6000611311600c836112ca565b915061131c826112db565b602082019050919050565b6000602082019050818103600083015261134081611304565b9050919050565b7f4e487b7100000000000000000000000000000000000000000000000000000000600052601160045260246000fd5b600061138182611043565b91507fffffffffffffffffffffffffffffffffffffffffffffffffffffffffffffffff82036113b3576113b2611347565b5b600182019050919050565b7f5472616e73616374696f6e20646f6573206e6f74206578697374000000000000600082015250565b60006113f4601a836112ca565b91506113ff826113be565b602082019050919050565b60006020820190508181036000830152611423816113e7565b9050919050565b7f5472616e73616374696f6e206e6f7420636f6e6669726d656400000000000000600082015250565b60006114606019836112ca565b915061146b8261142a565b602082019050919050565b6000602082019050818103600083015261148f81611453565b9050919050565b60006114a182611043565b91506114ac83611043565b92508282039050818111156114c4576114c3611347565b5b92915050565b7f4e6f7420656e6f75676820636f6e6669726d6174696f6e730000000000000000600082015250565b60006115006018836112ca565b915061150b826114ca565b602082019050919050565b6000602082019050818103600083015261152f816114f3565b9050919050565b600060408201905061154b6000830185611107565b611558602083018461104d565b9392505050565b611568816111ca565b811461157357600080fd5b50565b6000815190506115858161155f565b92915050565b6000602082840312156115a1576115a0611077565b5b60006115af84828501611576565b91505092915050565b7f546f6b656e207472616e73666572206661696c65640000000000000000000000600082015250565b60006115ee6015836112ca565b91506115f9826115b8565b602082019050919050565b6000602082019050818103600083015261161d816115e1565b9050919050565b7f4e487b7100000000000000000000000000000000000000000000000000000000600052603260045260246000fd5b600061165e82611043565b915061166983611043565b925082820190508082111561168157611680611347565b5b92915050565b7f5472616e73616374696f6e20616c726561647920636f6e6669726d6564000000600082015250565b60006116bd601d836112ca565b91506116c882611687565b602082019050919050565b600060208201905081810360008301526116ec816116b0565b9050919050565b7f5472616e73616374696f6e20616c726561647920657865637574656400000000600082015250565b6000611729601c836112ca565b9150611734826116f3565b602082019050919050565b600060208201905081810360008301526117588161171c565b9050919050565b600081905092915050565b50565b600061177a60008361175f565b91506117858261176a565b600082019050919050565b600061179b8261176d565b9150819050919050565b7f5472616e73616374696f6e206661696c65640000000000000000000000000000600082015250565b60006117db6012836112ca565b91506117e6826117a5565b602082019050919050565b6000602082019050818103600083015261180a816117ce565b905091905056fea26469706673582212200d28baf3de1f79632beef95ac276bb9d903ada65f1d8c0fe38239215381c8c1764736f6c63430008140033",
  "linkReferences": {},
  "deployedLinkReferences": {}
}