{
  "_format": "hh-sol-artifact-1",
  "contractName": "MyToken",
  "sourceName": "contracts/MyToken.sol",
  "abi": [
    {
      "inputs": [
        {
          "internalType": "uint256",
          "name": "initialSupply",
          "type": "uint256"
        },
        {
          "internalType": "address",
          "name": "_secondSigner",
          "type": "address"
        }
      ],
      "stateMutability": "nonpayable",
      "type": "constructor"
    },
    {
      "anonymous": false,
      "inputs": [
        {
          "indexed": true,
          "internalType": "address",
          "name": "owner",
          "type": "address"
        },
        {
          "indexed": true,
          "internalType": "address",
          "name": "spender",
          "type": "address"
        },
        {
          "indexed": false,
          "internalType": "uint256",
          "name": "value",
          "type": "uint256"
        }
      ],
      "name": "Approval",
      "type": "event"
    },
    {
      "anonymous": false,
      "inputs": [
        {
          "indexed": true,
          "internalType": "uint256",
          "name": "requestId",
          "type": "uint256"
        },
        {
          "indexed": false,
          "internalType": "address",
          "name": "approver",
          "type": "address"
        }
      ],
      "name": "BurnRequestApproved",
      "type": "event"
    },
    {
      "anonymous": false,
      "inputs": [
        {
          "indexed": true,
          "internalType": "uint256",
          "name": "requestId",
          "type": "uint256"
        },
        {
          "indexed": false,
          "internalType": "uint256",
          "name": "amount",
          "type": "uint256"
        }
      ],
      "name": "BurnRequestCreated",
      "type": "event"
    },
    {
      "anonymous": false,
      "inputs": [
        {
          "indexed": true,
          "internalType": "uint256",
          "name": "requestId",
          "type": "uint256"
        },
        {
          "indexed": false,
          "internalType": "uint256",
          "name": "amount",
          "type": "uint256"
        }
      ],
      "name": "BurnRequestExecuted",
      "type": "event"
    },
    {
      "anonymous": false,
      "inputs": [
        {
          "indexed": true,
          "internalType": "address",
          "name": "previousOwner",
          "type": "address"
        },
        {
          "indexed": true,
          "internalType": "address",
          "name": "newOwner",
          "type": "address"
        }
      ],
      "name": "OwnershipTransferred",
      "type": "event"
    },
    {
      "anonymous": false,
      "inputs": [
        {
          "indexed": true,
          "internalType": "address",
          "name": "from",
          "type": "address"
        },
        {
          "indexed": true,
          "internalType": "address",
          "name": "to",
          "type": "address"
        },
        {
          "indexed": false,
          "internalType": "uint256",
          "name": "value",
          "type": "uint256"
        }
      ],
      "name": "Transfer",
      "type": "event"
    },
    {
      "inputs": [
        {
          "internalType": "address",
          "name": "owner",
          "type": "address"
        },
        {
          "internalType": "address",
          "name": "spender",
          "type": "address"
        }
      ],
      "name": "allowance",
      "outputs": [
        {
          "internalType": "uint256",
          "name": "",
          "type": "uint256"
        }
      ],
      "stateMutability": "view",
      "type": "function"
    },
    {
      "inputs": [
        {
          "internalType": "address",
          "name": "spender",
          "type": "address"
        },
        {
          "internalType": "uint256",
          "name": "amount",
          "type": "uint256"
        }
      ],
      "name": "approve",
      "outputs": [
        {
          "internalType": "bool",
          "name": "",
          "type": "bool"
        }
      ],
      "stateMutability": "nonpayable",
      "type": "function"
    },
    {
      "inputs": [
        {
          "internalType": "uint256",
          "name": "requestId",
          "type": "uint256"
        }
      ],
      "name": "approveBurnRequest",
      "outputs": [],
      "stateMutability": "nonpayable",
      "type": "function"
    },
    {
      "inputs": [
        {
          "internalType": "address",
          "name": "account",
          "type": "address"
        }
      ],
      "name": "balanceOf",
      "outputs": [
        {
          "internalType": "uint256",
          "name": "",
          "type": "uint256"
        }
      ],
      "stateMutability": "view",
      "type": "function"
    },
    {
      "inputs": [
        {
          "internalType": "uint256",
          "name": "",
          "type": "uint256"
        }
      ],
      "name": "burnRequests",
      "outputs": [
        {
          "internalType": "uint256",
          "name": "amount",
          "type": "uint256"
        },
        {
          "internalType": "bool",
          "name": "ownerApproved",
          "type": "bool"
        },
        {
          "internalType": "bool",
          "name": "secondSignerApproved",
          "type": "bool"
        },
        {
          "internalType": "bool",
          "name": "executed",
          "type": "bool"
        }
      ],
      "stateMutability": "view",
      "type": "function"
    },
    {
      "inputs": [
        {
          "internalType": "uint256",
          "name": "amount",
          "type": "uint256"
        }
      ],
      "name": "createBurnRequest",
      "outputs": [],
      "stateMutability": "nonpayable",
      "type": "function"
    },
    {
      "inputs": [],
      "name": "decimals",
      "outputs": [
        {
          "internalType": "uint8",
          "name": "",
          "type": "uint8"
        }
      ],
      "stateMutability": "view",
      "type": "function"
    },
    {
      "inputs": [
        {
          "internalType": "address",
          "name": "spender",
          "type": "address"
        },
        {
          "internalType": "uint256",
          "name": "subtractedValue",
          "type": "uint256"
        }
      ],
      "name": "decreaseAllowance",
      "outputs": [
        {
          "internalType": "bool",
          "name": "",
          "type": "bool"
        }
      ],
      "stateMutability": "nonpayable",
      "type": "function"
    },
    {
      "inputs": [],
      "name": "getCurrentBurnRequestId",
      "outputs": [
        {
          "internalType": "uint256",
          "name": "",
          "type": "uint256"
        }
      ],
      "stateMutability": "view",
      "type": "function"
    },
    {
      "inputs": [
        {
          "internalType": "address",
          "name": "spender",
          "type": "address"
        },
        {
          "internalType": "uint256",
          "name": "addedValue",
          "type": "uint256"
        }
      ],
      "name": "increaseAllowance",
      "outputs": [
        {
          "internalType": "bool",
          "name": "",
          "type": "bool"
        }
      ],
      "stateMutability": "nonpayable",
      "type": "function"
    },
    {
      "inputs": [],
      "name": "name",
      "outputs": [
        {
          "internalType": "string",
          "name": "",
          "type": "string"
        }
      ],
      "stateMutability": "view",
      "type": "function"
    },
    {
      "inputs": [],
      "name": "owner",
      "outputs": [
        {
          "internalType": "address",
          "name": "",
          "type": "address"
        }
      ],
      "stateMutability": "view",
      "type": "function"
    },
    {
      "inputs": [],
      "name": "renounceOwnership",
      "outputs": [],
      "stateMutability": "nonpayable",
      "type": "function"
    },
    {
      "inputs": [],
      "name": "secondSigner",
      "outputs": [
        {
          "internalType": "address",
          "name": "",
          "type": "address"
        }
      ],
      "stateMutability": "view",
      "type": "function"
    },
    {
      "inputs": [
        {
          "internalType": "address",
          "name": "newSecondSigner",
          "type": "address"
        }
      ],
      "name": "setSecondSigner",
      "outputs": [],
      "stateMutability": "nonpayable",
      "type": "function"
    },
    {
      "inputs": [],
      "name": "symbol",
      "outputs": [
        {
          "internalType": "string",
          "name": "",
          "type": "string"
        }
      ],
      "stateMutability": "view",
      "type": "function"
    },
    {
      "inputs": [],
      "name": "tokenURI",
      "outputs": [
        {
          "internalType": "string",
          "name": "",
          "type": "string"
        }
      ],
      "stateMutability": "pure",
      "type": "function"
    },
    {
      "inputs": [],
      "name": "totalSupply",
      "outputs": [
        {
          "internalType": "uint256",
          "name": "",
          "type": "uint256"
        }
      ],
      "stateMutability": "view",
      "type": "function"
    },
    {
      "inputs": [
        {
          "internalType": "address",
          "name": "to",
          "type": "address"
        },
        {
          "internalType": "uint256",
          "name": "amount",
          "type": "uint256"
        }
      ],
      "name": "transfer",
      "outputs": [
        {
          "internalType": "bool",
          "name": "",
          "type": "bool"
        }
      ],
      "stateMutability": "nonpayable",
      "type": "function"
    },
    {
      "inputs": [
        {
          "internalType": "address",
          "name": "from",
          "type": "address"
        },
        {
          "internalType": "address",
          "name": "to",
          "type": "address"
        },
        {
          "internalType": "uint256",
          "name": "amount",
          "type": "uint256"
        }
      ],
      "name": "transferFrom",
      "outputs": [
        {
          "internalType": "bool",
          "name": "",
          "type": "bool"
        }
      ],
      "stateMutability": "nonpayable",
      "type": "function"
    },
    {
      "inputs": [
        {
          "internalType": "address",
          "name": "newOwner",
          "type": "address"
        }
      ],
      "name": "transferOwnership",
      "outputs": [],
      "stateMutability": "nonpayable",
      "type": "function"
    }
  ],
  "bytecode": "0x60806040523480156200001157600080fd5b5060405162002d4638038062002d4683398181016040528101906200003791906200042e565b6040518060400160405280601581526020017f507572706c6554656e7461636c65546f6b656e343200000000000000000000008152506040518060400160405280600381526020017f50545400000000000000000000000000000000000000000000000000000000008152508160039081620000b49190620006e5565b508060049081620000c69190620006e5565b505050620000e9620000dd6200014460201b60201c565b6200014c60201b60201c565b620000fb33836200021260201b60201c565b80600660006101000a81548173ffffffffffffffffffffffffffffffffffffffff021916908373ffffffffffffffffffffffffffffffffffffffff1602179055505050620008e7565b600033905090565b6000600560009054906101000a900473ffffffffffffffffffffffffffffffffffffffff16905081600560006101000a81548173ffffffffffffffffffffffffffffffffffffffff021916908373ffffffffffffffffffffffffffffffffffffffff1602179055508173ffffffffffffffffffffffffffffffffffffffff168173ffffffffffffffffffffffffffffffffffffffff167f8be0079c531659141344cd1fd0a4f28419497f9722a3daafe3b4186f6b6457e060405160405180910390a35050565b600073ffffffffffffffffffffffffffffffffffffffff168273ffffffffffffffffffffffffffffffffffffffff160362000284576040517f08c379a00000000000000000000000000000000000000000000000000000000081526004016200027b906200082d565b60405180910390fd5b62000298600083836200037f60201b60201c565b8060026000828254620002ac91906200087e565b92505081905550806000808473ffffffffffffffffffffffffffffffffffffffff1673ffffffffffffffffffffffffffffffffffffffff168152602001908152602001600020600082825401925050819055508173ffffffffffffffffffffffffffffffffffffffff16600073ffffffffffffffffffffffffffffffffffffffff167fddf252ad1be2c89b69c2b068fc378daa952ba7f163c4a11628f55a4df523b3ef836040516200035f9190620008ca565b60405180910390a36200037b600083836200038460201b60201c565b5050565b505050565b505050565b600080fd5b6000819050919050565b620003a3816200038e565b8114620003af57600080fd5b50565b600081519050620003c38162000398565b92915050565b600073ffffffffffffffffffffffffffffffffffffffff82169050919050565b6000620003f682620003c9565b9050919050565b6200040881620003e9565b81146200041457600080fd5b50565b6000815190506200042881620003fd565b92915050565b6000806040838503121562000448576200044762000389565b5b60006200045885828601620003b2565b92505060206200046b8582860162000417565b9150509250929050565b600081519050919050565b7f4e487b7100000000000000000000000000000000000000000000000000000000600052604160045260246000fd5b7f4e487b7100000000000000000000000000000000000000000000000000000000600052602260045260246000fd5b60006002820490506001821680620004f757607f821691505b6020821081036200050d576200050c620004af565b5b50919050565b60008190508160005260206000209050919050565b60006020601f8301049050919050565b600082821b905092915050565b600060088302620005777fffffffffffffffffffffffffffffffffffffffffffffffffffffffffffffffff8262000538565b62000583868362000538565b95508019841693508086168417925050509392505050565b6000819050919050565b6000620005c6620005c0620005ba846200038e565b6200059b565b6200038e565b9050919050565b6000819050919050565b620005e283620005a5565b620005fa620005f182620005cd565b84845462000545565b825550505050565b600090565b6200061162000602565b6200061e818484620005d7565b505050565b5b8181101562000646576200063a60008262000607565b60018101905062000624565b5050565b601f82111562000695576200065f8162000513565b6200066a8462000528565b810160208510156200067a578190505b62000692620006898562000528565b83018262000623565b50505b505050565b600082821c905092915050565b6000620006ba600019846008026200069a565b1980831691505092915050565b6000620006d58383620006a7565b9150826002028217905092915050565b620006f08262000475565b67ffffffffffffffff8111156200070c576200070b62000480565b5b620007188254620004de565b620007258282856200064a565b600060209050601f8311600181146200075d576000841562000748578287015190505b620007548582620006c7565b865550620007c4565b601f1984166200076d8662000513565b60005b82811015620007975784890151825560018201915060208501945060208101905062000770565b86831015620007b75784890151620007b3601f891682620006a7565b8355505b6001600288020188555050505b505050505050565b600082825260208201905092915050565b7f45524332303a206d696e7420746f20746865207a65726f206164647265737300600082015250565b600062000815601f83620007cc565b91506200082282620007dd565b602082019050919050565b60006020820190508181036000830152620008488162000806565b9050919050565b7f4e487b7100000000000000000000000000000000000000000000000000000000600052601160045260246000fd5b60006200088b826200038e565b915062000898836200038e565b9250828201905080821115620008b357620008b26200084f565b5b92915050565b620008c4816200038e565b82525050565b6000602082019050620008e16000830184620008b9565b92915050565b61244f80620008f76000396000f3fe608060405234801561001057600080fd5b50600436106101375760003560e01c8063715018a6116100b8578063a457c2d71161007c578063a457c2d714610343578063a9059cbb14610373578063ab20390a146103a3578063dd62ed3e146103bf578063f2fde38b146103ef578063fc0e8c571461040b57610137565b8063715018a6146102c35780637dda612f146102cd5780638da5cb5b146102e957806395746db91461030757806395d89b411461032557610137565b806339509351116100ff57806339509351146101f65780633c130d90146102265780635d343a7b146102445780636406c10c1461026057806370a082311461029357610137565b806306fdde031461013c578063095ea7b31461015a57806318160ddd1461018a57806323b872dd146101a8578063313ce567146101d8575b600080fd5b610144610429565b60405161015191906117ab565b60405180910390f35b610174600480360381019061016f9190611866565b6104bb565b60405161018191906118c1565b60405180910390f35b6101926104de565b60405161019f91906118eb565b60405180910390f35b6101c260048036038101906101bd9190611906565b6104e8565b6040516101cf91906118c1565b60405180910390f35b6101e0610517565b6040516101ed9190611975565b60405180910390f35b610210600480360381019061020b9190611866565b610520565b60405161021d91906118c1565b60405180910390f35b61022e610557565b60405161023b91906117ab565b60405180910390f35b61025e60048036038101906102599190611990565b610577565b005b61027a600480360381019061027591906119bd565b6105c3565b60405161028a94939291906119ea565b60405180910390f35b6102ad60048036038101906102a89190611990565b61061a565b6040516102ba91906118eb565b60405180910390f35b6102cb610662565b005b6102e760048036038101906102e291906119bd565b610676565b005b6102f16108df565b6040516102fe9190611a3e565b60405180910390f35b61030f610909565b60405161031c9190611a3e565b60405180910390f35b61032d61092f565b60405161033a91906117ab565b60405180910390f35b61035d60048036038101906103589190611866565b6109c1565b60405161036a91906118c1565b60405180910390f35b61038d60048036038101906103889190611866565b610a38565b60405161039a91906118c1565b60405180910390f35b6103bd60048036038101906103b891906119bd565b610a5b565b005b6103d960048036038101906103d49190611a59565b610bfa565b6040516103e691906118eb565b60405180910390f35b61040960048036038101906104049190611990565b610c81565b005b610413610d04565b60405161042091906118eb565b60405180910390f35b60606003805461043890611ac8565b80601f016020809104026020016040519081016040528092919081815260200182805461046490611ac8565b80156104b15780601f10610486576101008083540402835291602001916104b1565b820191906000526020600020905b81548152906001019060200180831161049457829003601f168201915b5050505050905090565b6000806104c6610d15565b90506104d3818585610d1d565b600191505092915050565b6000600254905090565b6000806104f3610d15565b9050610500858285610ee6565b61050b858585610f72565b60019150509392505050565b60006012905090565b60008061052b610d15565b905061054c81858561053d8589610bfa565b6105479190611b28565b610d1d565b600191505092915050565b60606040518060600160405280603b81526020016123df603b9139905090565b61057f6111e8565b80600660006101000a81548173ffffffffffffffffffffffffffffffffffffffff021916908373ffffffffffffffffffffffffffffffffffffffff16021790555050565b60086020528060005260406000206000915090508060000154908060010160009054906101000a900460ff16908060010160019054906101000a900460ff16908060010160029054906101000a900460ff16905084565b60008060008373ffffffffffffffffffffffffffffffffffffffff1673ffffffffffffffffffffffffffffffffffffffff168152602001908152602001600020549050919050565b61066a6111e8565b6106746000611266565b565b61067e6108df565b73ffffffffffffffffffffffffffffffffffffffff163373ffffffffffffffffffffffffffffffffffffffff1614806107045750600660009054906101000a900473ffffffffffffffffffffffffffffffffffffffff1673ffffffffffffffffffffffffffffffffffffffff163373ffffffffffffffffffffffffffffffffffffffff16145b610743576040517f08c379a000000000000000000000000000000000000000000000000000000000815260040161073a90611ba8565b60405180910390fd5b6008600082815260200190815260200160002060010160029054906101000a900460ff16156107a7576040517f08c379a000000000000000000000000000000000000000000000000000000000815260040161079e90611c14565b60405180910390fd5b6107af6108df565b73ffffffffffffffffffffffffffffffffffffffff163373ffffffffffffffffffffffffffffffffffffffff16036108155760016008600083815260200190815260200160002060010160006101000a81548160ff021916908315150217905550610845565b60016008600083815260200190815260200160002060010160016101000a81548160ff0219169083151502179055505b807f7cb03598e943679682ceaeb1b26aeaf4e12382bcde307a766936ab5a758ae38a336040516108759190611a3e565b60405180910390a26008600082815260200190815260200160002060010160009054906101000a900460ff1680156108cd57506008600082815260200190815260200160002060010160019054906101000a900460ff165b156108dc576108db8161132c565b5b50565b6000600560009054906101000a900473ffffffffffffffffffffffffffffffffffffffff16905090565b600660009054906101000a900473ffffffffffffffffffffffffffffffffffffffff1681565b60606004805461093e90611ac8565b80601f016020809104026020016040519081016040528092919081815260200182805461096a90611ac8565b80156109b75780601f1061098c576101008083540402835291602001916109b7565b820191906000526020600020905b81548152906001019060200180831161099a57829003601f168201915b5050505050905090565b6000806109cc610d15565b905060006109da8286610bfa565b905083811015610a1f576040517f08c379a0000000000000000000000000000000000000000000000000000000008152600401610a1690611ca6565b60405180910390fd5b610a2c8286868403610d1d565b60019250505092915050565b600080610a43610d15565b9050610a50818585610f72565b600191505092915050565b610a636111e8565b60008111610aa6576040517f08c379a0000000000000000000000000000000000000000000000000000000008152600401610a9d90611d12565b60405180910390fd5b80610ab03361061a565b1015610af1576040517f08c379a0000000000000000000000000000000000000000000000000000000008152600401610ae890611d7e565b60405180910390fd5b610afc333083610f72565b6000610b086007611520565b9050604051806080016040528083815260200160001515815260200160001515815260200160001515815250600860008381526020019081526020016000206000820151816000015560208201518160010160006101000a81548160ff02191690831515021790555060408201518160010160016101000a81548160ff02191690831515021790555060608201518160010160026101000a81548160ff021916908315150217905550905050610bbe600761152e565b807f23f887b5131cab7316e31e16190064cf7f6bc3816ed628045509730e8912c30d83604051610bee91906118eb565b60405180910390a25050565b6000600160008473ffffffffffffffffffffffffffffffffffffffff1673ffffffffffffffffffffffffffffffffffffffff16815260200190815260200160002060008373ffffffffffffffffffffffffffffffffffffffff1673ffffffffffffffffffffffffffffffffffffffff16815260200190815260200160002054905092915050565b610c896111e8565b600073ffffffffffffffffffffffffffffffffffffffff168173ffffffffffffffffffffffffffffffffffffffff1603610cf8576040517f08c379a0000000000000000000000000000000000000000000000000000000008152600401610cef90611e10565b60405180910390fd5b610d0181611266565b50565b6000610d106007611520565b905090565b600033905090565b600073ffffffffffffffffffffffffffffffffffffffff168373ffffffffffffffffffffffffffffffffffffffff1603610d8c576040517f08c379a0000000000000000000000000000000000000000000000000000000008152600401610d8390611ea2565b60405180910390fd5b600073ffffffffffffffffffffffffffffffffffffffff168273ffffffffffffffffffffffffffffffffffffffff1603610dfb576040517f08c379a0000000000000000000000000000000000000000000000000000000008152600401610df290611f34565b60405180910390fd5b80600160008573ffffffffffffffffffffffffffffffffffffffff1673ffffffffffffffffffffffffffffffffffffffff16815260200190815260200160002060008473ffffffffffffffffffffffffffffffffffffffff1673ffffffffffffffffffffffffffffffffffffffff168152602001908152602001600020819055508173ffffffffffffffffffffffffffffffffffffffff168373ffffffffffffffffffffffffffffffffffffffff167f8c5be1e5ebec7d5bd14f71427d1e84f3dd0314c0f7b2291e5b200ac8c7c3b92583604051610ed991906118eb565b60405180910390a3505050565b6000610ef28484610bfa565b90507fffffffffffffffffffffffffffffffffffffffffffffffffffffffffffffffff8114610f6c5781811015610f5e576040517f08c379a0000000000000000000000000000000000000000000000000000000008152600401610f5590611fa0565b60405180910390fd5b610f6b8484848403610d1d565b5b50505050565b600073ffffffffffffffffffffffffffffffffffffffff168373ffffffffffffffffffffffffffffffffffffffff1603610fe1576040517f08c379a0000000000000000000000000000000000000000000000000000000008152600401610fd890612032565b60405180910390fd5b600073ffffffffffffffffffffffffffffffffffffffff168273ffffffffffffffffffffffffffffffffffffffff1603611050576040517f08c379a0000000000000000000000000000000000000000000000000000000008152600401611047906120c4565b60405180910390fd5b61105b838383611544565b60008060008573ffffffffffffffffffffffffffffffffffffffff1673ffffffffffffffffffffffffffffffffffffffff168152602001908152602001600020549050818110156110e1576040517f08c379a00000000000000000000000000000000000000000000000000000000081526004016110d890612156565b60405180910390fd5b8181036000808673ffffffffffffffffffffffffffffffffffffffff1673ffffffffffffffffffffffffffffffffffffffff16815260200190815260200160002081905550816000808573ffffffffffffffffffffffffffffffffffffffff1673ffffffffffffffffffffffffffffffffffffffff168152602001908152602001600020600082825401925050819055508273ffffffffffffffffffffffffffffffffffffffff168473ffffffffffffffffffffffffffffffffffffffff167fddf252ad1be2c89b69c2b068fc378daa952ba7f163c4a11628f55a4df523b3ef846040516111cf91906118eb565b60405180910390a36111e2848484611549565b50505050565b6111f0610d15565b73ffffffffffffffffffffffffffffffffffffffff1661120e6108df565b73ffffffffffffffffffffffffffffffffffffffff1614611264576040517f08c379a000000000000000000000000000000000000000000000000000000000815260040161125b906121c2565b60405180910390fd5b565b6000600560009054906101000a900473ffffffffffffffffffffffffffffffffffffffff16905081600560006101000a81548173ffffffffffffffffffffffffffffffffffffffff021916908373ffffffffffffffffffffffffffffffffffffffff1602179055508173ffffffffffffffffffffffffffffffffffffffff168173ffffffffffffffffffffffffffffffffffffffff167f8be0079c531659141344cd1fd0a4f28419497f9722a3daafe3b4186f6b6457e060405160405180910390a35050565b6008600082815260200190815260200160002060010160009054906101000a900460ff16801561137c57506008600082815260200190815260200160002060010160019054906101000a900460ff165b6113bb576040517f08c379a00000000000000000000000000000000000000000000000000000000081526004016113b29061222e565b60405180910390fd5b6008600082815260200190815260200160002060010160029054906101000a900460ff161561141f576040517f08c379a00000000000000000000000000000000000000000000000000000000081526004016114169061229a565b60405180910390fd5b600860008281526020019081526020016000206000015461143f3061061a565b1015611480576040517f08c379a000000000000000000000000000000000000000000000000000000000815260040161147790611d7e565b60405180910390fd5b60016008600083815260200190815260200160002060010160026101000a81548160ff0219169083151502179055506114cf30600860008481526020019081526020016000206000015461154e565b807f58a3e74e37cd922ff7906eee226ff08fba8f6ac9336707990640a382389577bd600860008481526020019081526020016000206000015460405161151591906118eb565b60405180910390a250565b600081600001549050919050565b6001816000016000828254019250508190555050565b505050565b505050565b600073ffffffffffffffffffffffffffffffffffffffff168273ffffffffffffffffffffffffffffffffffffffff16036115bd576040517f08c379a00000000000000000000000000000000000000000000000000000000081526004016115b49061232c565b60405180910390fd5b6115c982600083611544565b60008060008473ffffffffffffffffffffffffffffffffffffffff1673ffffffffffffffffffffffffffffffffffffffff1681526020019081526020016000205490508181101561164f576040517f08c379a0000000000000000000000000000000000000000000000000000000008152600401611646906123be565b60405180910390fd5b8181036000808573ffffffffffffffffffffffffffffffffffffffff1673ffffffffffffffffffffffffffffffffffffffff1681526020019081526020016000208190555081600260008282540392505081905550600073ffffffffffffffffffffffffffffffffffffffff168373ffffffffffffffffffffffffffffffffffffffff167fddf252ad1be2c89b69c2b068fc378daa952ba7f163c4a11628f55a4df523b3ef8460405161170291906118eb565b60405180910390a361171683600084611549565b505050565b600081519050919050565b600082825260208201905092915050565b60005b8381101561175557808201518184015260208101905061173a565b60008484015250505050565b6000601f19601f8301169050919050565b600061177d8261171b565b6117878185611726565b9350611797818560208601611737565b6117a081611761565b840191505092915050565b600060208201905081810360008301526117c58184611772565b905092915050565b600080fd5b600073ffffffffffffffffffffffffffffffffffffffff82169050919050565b60006117fd826117d2565b9050919050565b61180d816117f2565b811461181857600080fd5b50565b60008135905061182a81611804565b92915050565b6000819050919050565b61184381611830565b811461184e57600080fd5b50565b6000813590506118608161183a565b92915050565b6000806040838503121561187d5761187c6117cd565b5b600061188b8582860161181b565b925050602061189c85828601611851565b9150509250929050565b60008115159050919050565b6118bb816118a6565b82525050565b60006020820190506118d660008301846118b2565b92915050565b6118e581611830565b82525050565b600060208201905061190060008301846118dc565b92915050565b60008060006060848603121561191f5761191e6117cd565b5b600061192d8682870161181b565b935050602061193e8682870161181b565b925050604061194f86828701611851565b9150509250925092565b600060ff82169050919050565b61196f81611959565b82525050565b600060208201905061198a6000830184611966565b92915050565b6000602082840312156119a6576119a56117cd565b5b60006119b48482850161181b565b91505092915050565b6000602082840312156119d3576119d26117cd565b5b60006119e184828501611851565b91505092915050565b60006080820190506119ff60008301876118dc565b611a0c60208301866118b2565b611a1960408301856118b2565b611a2660608301846118b2565b95945050505050565b611a38816117f2565b82525050565b6000602082019050611a536000830184611a2f565b92915050565b60008060408385031215611a7057611a6f6117cd565b5b6000611a7e8582860161181b565b9250506020611a8f8582860161181b565b9150509250929050565b7f4e487b7100000000000000000000000000000000000000000000000000000000600052602260045260246000fd5b60006002820490506001821680611ae057607f821691505b602082108103611af357611af2611a99565b5b50919050565b7f4e487b7100000000000000000000000000000000000000000000000000000000600052601160045260246000fd5b6000611b3382611830565b9150611b3e83611830565b9250828201905080821115611b5657611b55611af9565b5b92915050565b7f4e6f7420617574686f72697a6564000000000000000000000000000000000000600082015250565b6000611b92600e83611726565b9150611b9d82611b5c565b602082019050919050565b60006020820190508181036000830152611bc181611b85565b9050919050565b7f5265717565737420616c72656164792065786563757465640000000000000000600082015250565b6000611bfe601883611726565b9150611c0982611bc8565b602082019050919050565b60006020820190508181036000830152611c2d81611bf1565b9050919050565b7f45524332303a2064656372656173656420616c6c6f77616e63652062656c6f7760008201527f207a65726f000000000000000000000000000000000000000000000000000000602082015250565b6000611c90602583611726565b9150611c9b82611c34565b604082019050919050565b60006020820190508181036000830152611cbf81611c83565b9050919050565b7f416d6f756e74206d7573742062652067726561746572207468616e2030000000600082015250565b6000611cfc601d83611726565b9150611d0782611cc6565b602082019050919050565b60006020820190508181036000830152611d2b81611cef565b9050919050565b7f496e73756666696369656e742062616c616e636520666f72206275726e000000600082015250565b6000611d68601d83611726565b9150611d7382611d32565b602082019050919050565b60006020820190508181036000830152611d9781611d5b565b9050919050565b7f4f776e61626c653a206e6577206f776e657220697320746865207a65726f206160008201527f6464726573730000000000000000000000000000000000000000000000000000602082015250565b6000611dfa602683611726565b9150611e0582611d9e565b604082019050919050565b60006020820190508181036000830152611e2981611ded565b9050919050565b7f45524332303a20617070726f76652066726f6d20746865207a65726f2061646460008201527f7265737300000000000000000000000000000000000000000000000000000000602082015250565b6000611e8c602483611726565b9150611e9782611e30565b604082019050919050565b60006020820190508181036000830152611ebb81611e7f565b9050919050565b7f45524332303a20617070726f766520746f20746865207a65726f20616464726560008201527f7373000000000000000000000000000000000000000000000000000000000000602082015250565b6000611f1e602283611726565b9150611f2982611ec2565b604082019050919050565b60006020820190508181036000830152611f4d81611f11565b9050919050565b7f45524332303a20696e73756666696369656e7420616c6c6f77616e6365000000600082015250565b6000611f8a601d83611726565b9150611f9582611f54565b602082019050919050565b60006020820190508181036000830152611fb981611f7d565b9050919050565b7f45524332303a207472616e736665722066726f6d20746865207a65726f20616460008201527f6472657373000000000000000000000000000000000000000000000000000000602082015250565b600061201c602583611726565b915061202782611fc0565b604082019050919050565b6000602082019050818103600083015261204b8161200f565b9050919050565b7f45524332303a207472616e7366657220746f20746865207a65726f206164647260008201527f6573730000000000000000000000000000000000000000000000000000000000602082015250565b60006120ae602383611726565b91506120b982612052565b604082019050919050565b600060208201905081810360008301526120dd816120a1565b9050919050565b7f45524332303a207472616e7366657220616d6f756e742065786365656473206260008201527f616c616e63650000000000000000000000000000000000000000000000000000602082015250565b6000612140602683611726565b915061214b826120e4565b604082019050919050565b6000602082019050818103600083015261216f81612133565b9050919050565b7f4f776e61626c653a2063616c6c6572206973206e6f7420746865206f776e6572600082015250565b60006121ac602083611726565b91506121b782612176565b602082019050919050565b600060208201905081810360008301526121db8161219f565b9050919050565b7f4e6f742066756c6c7920617070726f7665640000000000000000000000000000600082015250565b6000612218601283611726565b9150612223826121e2565b602082019050919050565b600060208201905081810360008301526122478161220b565b9050919050565b7f416c726561647920657865637574656400000000000000000000000000000000600082015250565b6000612284601083611726565b915061228f8261224e565b602082019050919050565b600060208201905081810360008301526122b381612277565b9050919050565b7f45524332303a206275726e2066726f6d20746865207a65726f2061646472657360008201527f7300000000000000000000000000000000000000000000000000000000000000602082015250565b6000612316602183611726565b9150612321826122ba565b604082019050919050565b6000602082019050818103600083015261234581612309565b9050919050565b7f45524332303a206275726e20616d6f756e7420657863656564732062616c616e60008201527f6365000000000000000000000000000000000000000000000000000000000000602082015250565b60006123a8602283611726565b91506123b38261234c565b604082019050919050565b600060208201905081810360008301526123d78161239b565b905091905056fe68747470733a2f2f74656e7461636c65707572706c652e6769746875622e696f2f34325f746f6b656e697a65722f6d657461646174612e6a736f6ea26469706673582212209c66bd1edf9c683b41936950236411131ef76c67c5f645ea3198ae70090f28d464736f6c63430008140033",
  "linkReferences": {},
  "deployedLinkReferences": {}
}